:0A0851000001020203030404050580
:1002B700E4F513F512F511F510C203C200C202C22C
:1002C7000112041E7E067F008E238F24752B067570
:1002D7002C1275210675221C752906752A43752D62
:1002E70006752E6AEE54C070030203B875140075C4
:1002F70015808E168F17C3748C9FFF74069ECF24AC
:1003070002CF3400FEE48F0F8E0EF50DF50CF50BC2
:10031700F50AF509F508AF0FAE0EAD0DAC0CAB0B3A
:10032700AA0AA909A808C31208295033E517250BFB
:10033700F582E516350AF583E0FFE515250BF5820D
:10034700E514350AF583EFF0E50B2401F50BE435E9
:100357000AF50AE43509F509E43508F50880B78593
:10036700142385152474002480FF740634FFFEC30C
:10037700E52C9FF52CE52B9EF52BC3E5269FF5264F
:10038700E5259EF525C3E5289FF528E5279EF52752
:10039700C3E5229FF522E5219EF521C3E52A9FF5B6
:1003A7002AE5299EF529C3E52E9FF52EE52D9EF515
:1003B7002DD2E843D82090E668E04409F090E65C47
:1003C700E0443DF0D2AF90E680E020E105D2041290
:1003D70004CE90E680E054F7F0538EF8C20312047F
:1003E70086300105120080C2013003F21204FD506D
:1003F700EDC20312078420001690E682E030E7047E
:10040700E020E1EF90E682E030E604E020E0E4124D
:07041700072D1205FE80C74E
:0B08460090E509E030E402C322D32259
:1000800090E6B9E0700302013F1470030201BC2442
:10009000FE700302023F24FB700302013914700357
:1000A00002013314700302012714700302012D248E
:1000B0000560030202A312087540030202AF90E636
:1000C000BBE024FE602714603824FD601114602713
:1000D00024067050E52390E6B3F0E524803C120836
:1000E00046503EE52B90E6B3F0E52C802DE52590BB
:1000F000E6B3F0E5268023E52790E6B3F0E5288017
:100100001990E6BAE0FF120759AA06A9077B01EA8F
:10011000494B600DEE90E6B3F0EF90E6B4F00202CA
:10012000AF02029E02029E1208170202AF1208637B
:100130000202AF12085B0202AF1208050202AF1200
:10014000087740030202AF90E6B8E0247F60151400
:10015000601924027063A200E43325E0FFA202E4E8
:10016000334F8041E490E740F0803F90E6BCE0549C
:100170007EFF7E00E0D394807C0040047D018002FD
:100180007D00EC4EFEED4F2451F58274083EF58360
:10019000E493FF3395E0FEEF24A1FFEE34E68F8277
:1001A000F583E0540190E740F0E4A3F090E68AF094
:1001B00090E68B7402F00202AF02029E12087940B0
:1001C000030202AF90E6B8E024FE6016240260034A
:1001D0000202AF90E6BAE0B40105C2000202AF022B
:1001E000029E90E6BAE0705590E6BCE0547EFF7E39
:1001F00000E0D394807C0040047D0180027D00EC0F
:100200004EFEED4F2451F58274083EF583E493FFD2
:100210003395E0FEEF24A1FFEE34E68F82F583E014
:1002200054FEF090E6BCE05480131313541FFFE01B
:10023000540F2F90E683F0E04420F08072805F122C
:10024000087B506B90E6B8E024FE60192402704EE3
:1002500090E6BAE0B40104D200805490E6BAE064BB
:1002600002604C803990E6BCE0547EFF7E00E0D313
:1002700094807C0040047D0180027D00EC4EFEED08
:100280004F2451F58274083EF583E493FF3395E0E3
:10029000FEEF24A1FFEE34E68F82F583800D90E619
:1002A000A0800812086B500790E6A0E04401F0908F
:0602B000E6A0E04480F02E
:0102B6002225
:030033000208714F
:0408710053D8EF3237
:10070100E4FE7D80FBFAEF5D6004D2808002C2804E
:10071100D283308103ED4206C283EDC313FD0BBBCF
:0B07210000010AEB64084A70DDAF061F
:01072C0022AA
:10041E0090E600E054E74410F090E60B7403F00011
:10042E00000090E61074A0F090E611F0E490E68DD6
:10043E00F000000075B289D287C283C28090E612A6
:10044E0074E8F090E6017443F090E6047480F000D6
:10045E0000007482F0000000E4F000000090E61846
:10046E00740CF000000090E6207404F0000000E42C
:08047E0090E621F000000022CD
:05048600E5BA20E1428F
:10048B0090E68DE0F518C287E4F519E519C39518C8
:10049B00502174802519F582E434E7F583E0FF12CF
:1004AB00070174C02519F582E434E7F583EFF005F5
:1004BB001980D8D28790E68DE090E68FF0E490E635
:0204CB008DF0B2
:0104CD00220C
:0204FD00D32208
:0205FE00D32206
:02087500D3228C
:08085B0090E6BAE0F51BD32280
:1008050090E740E51BF0E490E68AF090E68B04F073
:02081500D322EC
:0808630090E6BAE0F51AD32279
:1008170090E740E51AF0E490E68AF090E68B04F062
:02082700D322DA
:02087700D3228A
:02087900D32288
:02087B00D32286
:06086B0090E6B9E0D32283
:1007A900C0E0C083C082D2015391EF90E65D74012D
:0807B900F0D082D083D0E032C1
:1007D900C0E0C083C0825391EF90E65D7404F0D00D
:0607E90082D083D0E03253
:1007EF00C0E0C083C0825391EF90E65D7402F0D0F9
:0607FF0082D083D0E0323D
:1006CB00C0E0C083C082852925852A2685268285A0
:1006DB002583A37402F0852127852228852882850E
:1006EB002783A37407F05391EF90E65D7410F0D05D
:0606FB0082D083D0E03242
:1007C100C0E0C083C082D2035391EF90E65D74080C
:0807D100F0D082D083D0E032A9
:10068E00C0E0C083C08290E680E030E7208521255F
:10069E00852226852682852583A37402F085292747
:1006AE00852A28852882852783A37407F05391EF26
:0D06BE0090E65D7420F0D082D083D0E03251
:0104FF0032CA
:01087D003248
:01087E003247
:01087F003246
:010880003245
:010881003244
:010882003243
:010883003242
:010884003241
:010885003240
:01088600323F
:01088700323E
:01088800323D
:01088900323C
:01088A00323B
:01088B00323A
:01088C003239
:01088D003238
:01088E003237
:01088F003236
:010890003235
:010891003234
:010892003233
:010893003232
:010894003231
:010895003230
:01089600322F
:01089700322E
:01089800322D
:01089900322C
:01089A00322B
:01089B00322A
:01089C003229
:01089D003228
:01089E003227
:01089F003226
:100600001201000200000040B404041000000102C6
:1006100000010A0600020000004001000902270054
:1006200001010080320904000003FF0000000705FB
:100630000102400000070581024000000705820218
:1006400000040009022700010100803209040000B3
:1006500003FF0000000705010240000007058102BA
:100660004000000705820240000004030904100353
:1006700043007900700072006500730073000E0380
:0E06800045005A002D005500530042000000B6
:03004300020500B3
:03005300020500A3
:100500000207A9000207EF000207D9000207C10095
:100510000206CB0002068E000204FF0002087D00E6
:1005200002087E0002087F000208800002088100A5
:100530000208820002088300020884000208850085
:100540000208860002087D00020887000208880071
:100550000208890002088A0002088B0002088C0049
:1005600002088D0002087D0002087D0002087D005F
:1005700002088E0002088F00020890000208910015
:1005800002089200020893000208940002089500F5
:1005900002089600020897000208980002089900D5
:1005A00002089A0002089B0002089C0002089D00B5
:0805B00002089E0002089F00F2
:10072D0090E682E030E004E020E60B90E682E030D7
:10073D00E119E030E71590E680E04401F07F147E8A
:0C074D00001205B890E680E054FEF02297
:1004CE0030040990E680E0440AF0800790E680E070
:1004DE004408F07FDC7E051205B890E65D74FFF0EF
:0F04EE0090E65FF05391EF90E680E054F7F02234
:02075900A907EE
:10075B00AE2DAF2E8F828E83A3E064037017AD0195
:10076B0019ED7001228F828E83E07C002FFDEC3E11
:08077B00FEAF0580DFE4FEFF84
:010783002253
:1007840090E682E044C0F090E681F04387010000E7
:04079400000000223F
:1005B8008E188F1990E600E054187012E51924017E
:1005C800FFE43518C313F518EF13F519801590E6F5
:1005D80000E05418FFBF100BE51925E0F519E518E0
:1005E80033F518E5191519AE18700215184E60057F
:0605F80012079880EE22BC
:100798007400F58690FDA57C05A3E582458370F974
:0107A800222E
:0300000002083AB9
:0C083A00787FE4F6D8FD75812E0202B72D
:10082900EB9FF5F0EA9E42F0E99D42F0E89C45F025
:01083900229C
:00000001FF
